:020000040800F2
:10000000582B01206D02000823240008E12100087C
:1000100021240008B50400084B410008000000003E
:10002000000000000000000000000000AD0100081A
:10003000B70400080000000009020008B925000804
:10004000870200088702000887020008870200086C
:10005000870200088702000887020008870200085C
:10006000870200088702000887020008870200084C
:10007000870200088702000887020008870200083C
:1000800087020008870200088702000800000000BD
:1000900000000000000000000000000087020008CF
:1000A00087020008852600088702000887020008EA
:1000B00087020008870200088702000887020008FC
:1000C00087020008870200088702000887020008EC
:1000D000952500088702000887020008000000003C
:1000E000870200088702000887020008000000005D
:1000F000000000000000000000000000870200086F
:10010000000000008702000887020008870200083C
:1001100000000000000000000000000000000000DF
:10012000870200088702000887020008870200088B
:10013000870200080000000000000000000000002E
:10014000000000000000000000000000252400085E
:10015000870200088702000887020008870200085B
:10016000870200088702000800000000000000006D
:10017000000000000000000000000000000000007F
:1001800000000000870200080000000000000000DE
:100190008702000887020008DFF80CD000F0F4F8AE
:1001A00000480047D1410008582B01202C4B19680A
:1001B0000868B0E8F04F80F30988BFF36F8F4FF005
:1001C000000080F3118870470000000008480068B4
:1001D000006880F308884FF0000080F3148862B64E
:1001E00061B6BFF34F8FBFF36F8F00DF00BF00BF5B
:1001F00008ED00E0DFF80C00016841F470010160D7
:10020000704700BF88ED00E0EFF30980BFF36F8F08
:10021000134B1A681EF0100F08BF20ED108A20E95A
:10022000F04F106009B44FF0500080F31188BFF315
:100230004F8FBFF36F8F04F0BBFC4FF0000080F3D3
:10024000118809BC19680868B0E8F04F1EF0100F5B
:1002500008BFB0EC108A80F30988BFF36F8F704736
:1002600084000020EFF305807047000006488047B7
:1002700006480047FEE7FEE7FEE7FEE7FEE7FEE78B
:10028000FEE7FEE7FEE7FEE7752600089901000895
:100290002DE9F05F0546002092469B4688460646BB
:1002A000814640241BE0284641464746224600F04E
:1002B0005AF853465A46C01A914110D3114618466F
:1002C000224600F041F82D1A67EB01084F462246FE
:1002D0000120002100F038F817EB00094E41201EE4
:1002E000A4F10104DFDC484631462A464346BDE816
:1002F000F09F40EA01039B0703D009E008C9121FE1
:1003000008C0042AFAD203E011F8013B00F8013BCF
:10031000521EF9D27047D2B201E000F8012B491EFB
:10032000FBD270470022F6E710B513460A46044692
:100330001946FFF7F0FF204610BD421C10F8011BC4
:100340000029FBD1801A7047202A04DB203A00FAEA
:1003500002F1002070479140C2F1200320FA03F31C
:10036000194390407047202A04DB203A21FA02F01A
:100370000021704721FA02F3D040C2F120029140DF
:100380000843194670470000064C074D06E0E06838
:1003900040F0010394E8070098471034AC42F6D3CC
:1003A000FFF7FEFEE45300080454000870B58C18F3
:1003B00010F8015B15F0070301D110F8013B2A1179
:1003C00006D110F8012B03E010F8016B01F8016B66
:1003D0005B1EF9D12B0705D40023521E0DD401F862
:1003E000013BFAE710F8013BCB1A921C03E013F82B
:1003F000015B01F8015B521EF9D5A142D8D3002060
:1004000070BD00207047002070470020704700201A
:1004100070470020704700207047002070470000A0
:100420000B4CADF5C06D4FF4C06564226946206881
:1004300004F02CFD0128F8D104F08EFA2B466A4610
:100440008121044802F00DFF04F0A6FAEDE7000058
:1004500004000020D41000201CB500224FF4C0611D
:10046000082004F04DFC0D494860A0B10021052092
:10047000CDE900010B464FF40074224608A10B4859
:1004800004F0DAFD02B022460949BDE81040A1F1AE
:10049000900000F017BB72B6FEE7000000000020DD
:1004A000417564696F5461736B000000210400089A
:1004B00038020020FEE7704772B6FEE770B50446CA
:1004C00000F0E0F80546601C02D0044800780444BF
:1004D00000F0D8F8401BA042FAD370BD7400002091
:1004E0002DE9F84FDFF87C910022A9F1040B0327D6
:1004F0004FF00F0C09F1040AABF1040E01250B6853
:1005000095402B40AB426ED10C7904F00304012CD2
:1005100001D0022C15D18668540007FA04F826EAA7
:100520000806D1F80C8008FA04F848EA0608C0F872
:1005300008804468AC430D79C5F300159540254308
:1005400045600C79E443A40708D0C568540007FA55
:1005500004F6B5438E68A6402E43C6600C7904F0BD
:100560000304022C11D1D40800EB8406356A540729
:10057000E40E0CFA04F825EA0805D1F8108008FA10
:1005800004F848EA0508C6F820800568540007FA10
:1005900004F6B5430E7906F00306A6402E43066026
:1005A0004C6814F4403F57D02F4C256845F48045E3
:1005B0002560246822F0030504F4804400942B4C49
:1005C00005EB0408D8F808589407260F0CFA06F42F
:1005D000A543274CA04201D1002415E0254CA042A0
:1005E00002D1012410E037E0234CA04201D10224C3
:1005F0000AE0224CA04201D1032405E0204CA04295
:1006000001D1042400E00724B4402C43C8F8084872
:10061000D9F800404D464E689C43F60200D51C4375
:100620002C60DAF8004055464E689C43B60200D56F
:100630001C432C60DBF800405D464E689C43B603CB
:1006400000D51C432C60DEF8004075464E689C4384
:10065000F60300D51C432C60521C102AFFF44EAF49
:10066000BDE8F88F083C01404438024000300140AA
:10067000000002400004024000080240000C02405A
:10068000001002400148806870470000740000209C
:100690002DE9FF41044600688168784A784D4FF0A3
:1006A00040260091904201D1294600E031468968F8
:1006B000019140689046029001D1284600E0304602
:1006C0004068039060684FF00107B0F5007F1CD0D0
:1006D000D8B1880705D50398000602D5204601F059
:1006E000B1FD0098C0070FD0029840067FD5216861
:1006F0002046CA68E16A8B1CE3620A80618E491E4B
:100700006186618E002967D071E00098800719D555
:100710000298000616D5616A20468A1C6262226829
:100720000988D160618D491E6185618D51B901686B
:100730004A6822F0A0024A60418E19B980F84170DF
:1007400000F0A0F80198C00705D00398400602D534
:10075000204601F047FD0198400622D50398800607
:100760001FD52168414501D1284600E03046406848
:1007700020F0600101D1284600E030464160206849
:10078000416821F0A00141602068C1688068019043
:1007900084F84170606C40F002006064204600F014
:1007A00072F80098000767D50298800664D5206823
:1007B000416821F0A00141602168414501D12846EE
:1007C00000E03046406820F0600000D035466860A8
:1007D00020688068009043E001684A6822F0600267
:1007E0004A60418D19B980F8417000F04BF80098CB
:1007F00040061ED5029880061BD52068416821F06E
:10080000600141602168414501D1284600E0304641
:10081000406820F0A00101D1284600E03046416048
:1008200084F84170606C40F002006064204600F083
:100830002AF8019800071FD5039880061CD5216867
:10084000414501D1284600E03046406820F0A00034
:1008500000D0354668602068416821F06001416041
:1008600084F84170606C40F00400606404B020467D
:10087000BDE8F04100F007B8BDE8FF810038004056
:100880000034004070477047416B08472DE9F0473E
:10089000040005D094F841004FF0000818B109E0B9
:1008A0000120BDE8F08784F840805148606320460D
:1008B00000F0A6F8022684F841602068C16940F67D
:1008C000BF77B943C1612068066260694FF400795F
:1008D000022828D0E06870B12025A068202800D820
:1008E0006D00012000F022FF2169494518D1E1681F
:1008F00019B1A90002E01025EFE7E900B0FBF1F023
:1009000000EB800061694000B0FBF1F0401D0A215E
:10091000B0FBF1F000F00101401A4008090204E0C8
:10092000B0FBF5F0ECE702200021821EFE2A04D382
:10093000606C40F010006064B2E722690843024333
:1009400020680262D4E901100143A269E068104303
:1009500001432068C269BA43114341F40061C16197
:10096000206A01283AD123486063234D2268234836
:100970004FF04021AA4201D1024600E00A46D36965
:1009800023EA070301D1024600E00A46D361226848
:10099000AA4201D1024600E00A4616622368AB4231
:1009A00001D1024600E00A46D26996B262684A4521
:1009B0001BD0D2B100222789B4F80CC047EA0C073B
:1009C000B4F818C04CEA020C47EA0C07BAB232433A
:1009D00042F40062AB4200D00846C261C4F84480D1
:1009E000012084F8410000205BE74FF48072E2E7C9
:1009F000A52200089106000800380040003400409D
:100A000070B58CB0044614216846FFF78BFC1821A2
:100A100005A8FFF787FC27492068884248D10120B4
:100A20000590000207900A2005250690089505A864
:100A300000F0ACFE08B1FFF73FFD1F48002401683D
:100A400041F480410160006800F480400B901A4836
:100A50001038016841F001010160016801F00101F5
:100A60000B91016841F0020101600068022600F06C
:100A700002000B9040200090CDE901640620CDE9F2
:100A8000034069460D48FFF72BFD4FF414400090DA
:100A9000CDE9016469460A48CDE90345FFF720FD29
:100AA00000220521242000F009F9242000F0F8F8A4
:100AB0000CB070BD003800404038024000000240D9
:100AC0000004024010B529B122B190F84130012B49
:100AD00018D101E0012010BD90F84030012B11D059
:100AE000012380F84030042380F84130002444641E
:100AF000C1620168CB6903F00703032B04D0052B07
:100B000002D005E0022010BD4FF6FF7303EA420257
:100B10000286428680F840404A6842F060024A609D
:100B20000068C169490503D4C16941F48061C161AC
:100B3000002010BD30B5ADF2046D05460020CDF8A3
:100B400000064FF4C06210496846FFF7D2FB0F4C15
:100B500000230DF5C0626946606804F037F9DDF8DE
:100B6000000638B10A4A4FF080511160BFF34F8F31
:100B7000BFF36F8F4FF4007203492846FFF7A2FFBF
:100B80000DF2046D30BD000038020020000000208E
:100B900004ED00E0704700000248816802781144CB
:100BA00081607047740000200B4810B5016841F463
:100BB00000710160016841F480610160016841F4E5
:100BC00080710160032000F099F80F2000F006F812
:100BD00000F04AF8002010BD003C024030B5054648
:100BE0001C4887B00024016841F0010101600068E1
:100BF00005A900F001000690684600F009FF00F02A
:100C00003DFF1549154AB0FBF1F11548491E026038
:100C100040F2E732C0E90324C0E90114846101F025
:100C20001DF9040012D10E4801F046F904000DD15F
:100C3000192000F035F8102D07D20022294619207E
:100C400000F03CF80748056000E0012407B02046AA
:100C500030BD00004438024040420F000000014017
:100C60008C100020780000200C4882B0016841F40C
:100C700080410160006800F4804000900748001F38
:100C8000016841F0805101600068002200F080504E
:100C900000900F21901E02B000F010B844380240BE
:100CA000002809DB00F01F0201219140400980006B
:100CB00000F1E020C0F8001170470000F0B40E4BC6
:100CC0001B68C3F30223C3F10704042C00D90424D6
:100CD0001D1D072D01D2002300E0DB1E012606FAB0
:100CE00004F56D1E0D409D409E40761E164045EA5F
:100CF0000601F0BC03F032BA0CED00E0064A00F049
:100D0000070110684FF6FF03184040EA012003492D
:100D100008431060704700000CED00E00000FA0589
:100D200070470068416200207047F0B50368586A58
:100D300039B19C6A4FF4827500EB144400204E1EBA
:100D40000AE040EA024098620FE005EB8007DF59B5
:100D5000401C04EB1744C0B2B042F6D344EA024050
:100D60004FF4807202EB810158500020F0BDD0F8A2
:100D7000E00402F048B901EBC10200EB8202D0F8B6
:100D8000E004126A02F099B801EBC10200EB8202A2
:100D9000D0F8E004D2F8602202F0EBB8D0F8E0041A
:100DA00002F033B90A0601F00F0101EBC10100EBBB
:100DB000810101D5143101E001F51571006803F0DE
:100DC00013B870B504460B0601F00F0000EBC0012C
:100DD00004EB81014FF001024FF0000502D54A7586
:100DE000143103E081F8555201F51571087094F83B
:100DF0009404012808D084F89424206802F012FD9D
:100E000084F89454002070BD022070BD70B5044673
:100E100001F00F002279904201D9012070BD0B062C
:100E200001F00F0101EBC10104EB81014FF0010260
:100E30004FF0000502D54A75143103E081F8555290
:100E400001F515718D70087094F89404012808D08C
:100E500084F89424206802F053FE84F8945400200F
:100E600070BD022070BD2DE9F04104460F0601F06F
:100E70000F0000EBC00104EB81014FF001064FF0C1
:100E8000000502D54E75143103E081F8555201F585
:100E90001571C2F30A0208708A600B714A7802B1B8
:100EA0004883022B00D14D7194F89404012809D095
:100EB00084F89464206802F003FC284684F8945473
:100EC000BDE8F0810220FBE710B501F00F0404EB50
:100ED000C40100EB8101C1E998230023C1F8683205
:100EE00081F8553281F85442837901F51571012B4F
:100EF00000D1CA618279006802F05AFE002010BD5C
:100F000070B504460D4601F00F002179884201D9E1
:100F1000012070BD29064FF000064FF0010206D5F2
:100F200000EBC00104EB81014A75143107E005EBC9
:100F3000C50104EB810181F8556201F515718A70D4
:100F4000087094F89404012807D084F89424206849
:100F500002F002FE280702D007E0022070BDA1794E
:100F600004F29C42206802F09FFD84F89464002003
:100F700070BD10B501F00F0404EBC40100EB81015A
:100F8000C1E9082300238B6201234B7501F8144F3C
:100F90008379012B00D1CA618279006802F008FED2
:100FA000002010BD2DE9F84F05680446284602F0E0
:100FB000B6FF00287DD1206802F0DDFF002878D040
:100FC000D5F80808C0F30D20C4F8D404206802F056
:100FD000D2FF800704D52068416901F00201416118
:100FE000206802F0C8FFC10604F29C40009034D58E
:100FF0002068816921F0100181612F6A07F00F00DC
:1010000000EBC00004EB8006C7F3434006F51576FD
:10101000022802D0062811D01AE047F6F0700742E5
:1010200016D0C7F30A1217462846F16802F0A7FF48
:10103000F0683844F0607069384408E008222846B7
:10104000009902F09CFF7069C7F30A1108447061AF
:101050002068816941F010018161206802F08BFFF6
:1010600000034FF0010B7AD50026206802F062FFE2
:101070008046DFF878A46FE05FEAC87069D0F1B20B
:10108000206802F070FF0746C00707D005EB461145
:10109000C1F808BB3146204601F0CAF9380722D50D
:1010A00005EB46110820C1F8080B2068D0F84090E5
:1010B00000E018E200EB4610D0F8082BD14505D926
:1010C000110403D54FF40041C0F8081B204600F07E
:1010D000EDFAD14507D9A079012804D12068012172
:1010E000009A02F0E1FCF80604D505EB4611102049
:1010F000C1F8080BB8071DD56869000605D5D5F8F5
:10110000040840F48061C5F8041806EBC60004EB3F
:10111000800090F8571200F51570012905D10021C3
:10112000C170F1B2204600F0E7F905EB461102204C
:10113000C1F8080BB80604D505EB46102021C0F80D
:10114000081BB80405D505EB46104FF40051C0F854
:10115000081B4FEA5808761CB8F1000F8CD12068A4
:1011600002F009FF40036DD5206802F0DCFE8046E6
:10117000002664E05FEAC8705ED0F1B2206802F039
:10118000E0FE0746C00723D006F00F010BFA01F07E
:10119000D5F834188143C5F8341805EB4610C0F86B
:1011A00008B9A07901280FD106EBC60004EB800036
:1011B000D0E907211144016236B9606A20B920687C
:1011C0000121009A02F070FCF1B22046FFF7D3FD36
:1011D000380704D505EB46110820C1F80809F806C0
:1011E00004D505EB46111020C1F80809780604D58E
:1011F00005EB46104021C0F80819B80716D531464E
:10120000284602F061FE06EBC60004EB8000C17DBB
:101210001430012905D10021C170F1B2204600F03F
:1012200067F905EB46110220C1F80809380603D515
:101230003146204601F062F94FEA5808761CB8F1B1
:10124000000F97D1206802F096FE002811DAD5F839
:10125000040820F00101C5F8041894F8CC04012812
:101260002BD0204600F007FA2068416901F00041C8
:101270004161206802F07FFE00050BD5D5F8080813
:10128000C00702D0204600F039FA2068416901F415
:1012900000614161206802F06EFEC00467D5D5F898
:1012A000040820F00101C5F804181021206802F09C
:1012B0000BFE00214FF67F3220E0002084F8CC04A2
:1012C00001462046FFF72CFDCEE705EB4110C0F8A4
:1012D0000829D0F8003923F40013C0F80039C0F809
:1012E000082BD0F8003B23F40013C0F8003BD0F8E3
:1012F000003B43F00063C0F8003B491C2079884262
:10130000E3D8D5F81C0840F00111C5F81C18E07BA3
:10131000002828460DD0D0F8840840F00B01C5F80D
:101320008418D5F8440840F00B012846C5F8441845
:101330000DE0D0F8140842F22B010843C5F8140858
:10134000D5F8100840F00B012846C5F81018D0F861
:10135000000820F4FE61C5F80018A1792068009A01
:1013600002F0A2FB2068416901F4805141612068CC
:1013700002F001FE800415D5206802F0E1F9206832
:1013800002F0C0FDE07100F063FB0146E2792068E5
:1013900002F054FE204600F05BF92068416901F438
:1013A00000514161206802F0E6FD000707D52046A4
:1013B00000F065F92068416901F008014161206889
:1013C00002F0D9FD000615D5A86920F08001A961B9
:1013D00001260CE006EBC60004EB800090F85702F3
:1013E000012803D1F1B22046FFF7DCFC761C2079FE
:1013F000B042EFD8206802F0BEFDC0021FD5012622
:101400005F4614E005EB4610D0F8001906EBC60065
:1014100004EB8000027E012A08D1002906DAC77594
:10142000F0B240F080012046FFF7BCFC761C20792A
:10143000B042E7D82068416901F480114161206819
:1014400002F099FD800231D501205B4626E005EBD4
:101450004011D1F8001B00EBC00204EB820292F8AD
:101460005862012E19D1002917DA94F8D464C1F317
:10147000004106F001068E420FD182F85732A96969
:1014800041F08002AA616969090606D4D5F804080A
:1014900040F40070C5F8040803E0401C2179814243
:1014A000D5D82068416901F400114161206802F03B
:1014B00062FD400007D52046FFF759FC20684169CE
:1014C00001F080414161206802F055FD40070AD5D6
:1014D00020684568680702D52046FFF75FFC206852
:1014E000416829434160BDE8F88F00000A30544F3D
:1014F000D0F8E00401F0D7BDD0F8E00401F0E7BD7A
:10150000F8B5040005D094F895042668002510B1BC
:1015100006E00120F8BD84F89454204600F056F807
:10152000032084F89504B6F1A04F00D1A57120687E
:1015300002F0B4FA207C8DF8000094E80F0002F06D
:101540000DF90226B0BB0021206802F037FD88BBF0
:10155000002101270CE001EBC10004EB800047757E
:101560000175C1850576C5610562491CC9B2456230
:1015700020798842EFD8002111E001EBC10004EB93
:10158000800080F8555280F8541280F85852C0F804
:101590005C52C0F86052491CC9B2C0F8645220794C
:1015A0008842EAD8207C8DF8000094E80F0002F011
:1015B000BDF910B184F89564ABE7657484F895744F
:1015C000206802F0A5F90020F8BD000010B586B033
:1015D000044614216846FEF7A5FE2068B0F1A04F2E
:1015E0002FD119480021026842F001020260006810
:1015F00000F0010005904FF4C05000900220CDE9AA
:101600000101032003900A20049069460F48FEF769
:1016100067FF0D48001D016841F0800101600A4824
:101620001430016841F4804101600068002200F438
:101630008040059005214320FFF740FB4320FFF742
:101640002FFB06B010BD0000303802400000024001
:1016500070B50446C0790125022801D0FEF72CFFA1
:101660002946D4F8E00401F0A1FDD4F8E004BDE877
:10167000704001F055BDD0F8E00401F080BDD0F815
:10168000E00401F086BD10B5044690F894040128EA
:101690000AD0012084F894046174206802F0BCFC34
:1016A000002084F8940410BD022010BDD0F8E0247E
:1016B00000F29C41104601F085BD10B5044600685B
:1016C00094F89414012909D0012184F89414C16874
:1016D000490609D5617B012902D005E0022010BD31
:1016E000816B41F480318163206802F0CBFB20687C
:1016F00002F000F9002084F8940410BD10B50446EF
:10170000D0F8E00401F0A0FD2068D0F8001E41F000
:101710000101C0F8001EE07A002804D002480168E8
:1017200041F00601016010BD10ED00E0014600200F
:10173000012908D11049096811F4000104D0B1F55C
:10174000000F00D10D4870470B48001F00680C497E
:101750004002086800F03F0001D50A4A00E00A4A4A
:10176000B2FBF0F00A68C2F3881242430868C0F383
:101770000270B2FBF0F07047083802400080BB00F6
:1017800084380240001BB7000024F4002DE9F84320
:10179000044600684FF00109C1074FF0000501D170
:1017A000400728D5DFF81C81C8F86850FEF76AFFAB
:1017B0000646454F04E0FEF765FF801B022859D816
:1017C00038680001F7D4A068217B800140EA0170ED
:1017D000616808433C4984310860C8F86890FEF7A6
:1017E00051FF064604E0FEF74DFF801B022841D85A
:1017F00038680001F7D52078800752D5324840304C
:10180000016841F0805101600068304F00F0805065
:101810000090386840F480703860FEF733FF064669
:1018200004E0FEF72FFF801B022823D83868C0058C
:10183000F7D5254E7036306810F4407020D0218ADC
:1018400001F4407181421BD03068214920F440707E
:10185000C1F800900D6030603068C00710D0FEF70E
:1018600011FF054641F2883707E0FEF70BFF401BEA
:10187000B84202D90320BDE8F88330688007F4D568
:1018800020691149C0F301220831032A12D00868E7
:1018900020F4F81008603068218AC1F30B01084376
:1018A00030602078000703D50A49207DC1F8E001A7
:1018B0000020E0E70A68084B22F4F81218400243BF
:1018C0000A60E8E70000474200380240007000402C
:1018D000400E474200104742FFFCFF0F2DE9F04742
:1018E0000D46040065D0DFF81491D9F80000EFB27E
:1018F00000F00700A84207D289F80070D9F800006C
:1019000000F00700A84254D120683D4E810712D54F
:10191000400703D5306840F4E0503060207800077D
:1019200003D5306840F4604030603068A16820F032
:10193000F000084330602078C0072DD0304960683F
:101940000839012812D0022813D0032811D00968C1
:10195000890700292DDA316821F003010143316044
:10196000FEF790FE804641F2883A0EE0096889034E
:10197000EFE709688901ECE7FEF784FEA0EB0801B8
:10198000514502D90320BDE8F0873068616800F056
:101990000C00B0EB810FEFD1D9F80010484601F0F0
:1019A0000701A94207D90770006800F00700A842A4
:1019B00001D00120E7E72078400705D53068E168CD
:1019C00020F4E050084330602078000706D53068E6
:1019D000216920F4604040EAC100306000F05EF808
:1019E0003168084AC1F30311515CC84006490860D8
:1019F00006480068FFF7F2F80020C4E7003C024008
:101A000008380240C0530008800000207800002001
:101A10000F2202600C4A136803F00303436013684B
:101A200003F0F0038360136803F4E053C3601268AB
:101A30004FF4E05303EAD20202610448006800F068
:101A4000070008607047000008380240003C024070
:101A500001480068704700008000002004480549E4
:101A600000680968044AC1F38221515CC84070478C
:101A70008000002008380240D0530008044805497F
:101A800000680968044AC1F34231515CC84070479C
:101A90008000002008380240D0530008154810B5D7
:101AA000006810F00C01144813D0144B04290FD017
:101AB00008290ED10F4C241F216801F03F02216834
:101AC000490207D52068C0F38810A0FB030106E097
:101AD000184610BD2168C1F38811A1FB0001002345
:101AE000FEF7D6FB2168C1F30141491C4900B0FB58
:101AF000F1F010BD083802400024F400001BB700CC
:101B00002DE9F84F040075D02078DFF838A3C0071E
:101B1000AAF1040548D00AF104000168C1F381016B
:101B2000012908D00068C0F3810002280AD1DAF840
:101B30000000400206D52868800335D5606800287B
:101B4000E1D031E06068B0F5803F10D0B0F5A02F53
:101B5000286810D020F480302860286820F4802085
:101B600028606068A0B1FEF78DFD06460CE028688D
:101B700040F48030F4E740F480202860F7E7FEF777
:101B800081FD801B642871D828688003F7D50BE09D
:101B9000FEF778FD064604E0FEF774FD801B64281E
:101BA000F1D828688003F7D42078DFF89C9280076A
:101BB0004FF0000B3DD5A348001D016811F00C0F3C
:101BC00008D00068C0F3810002280AD1DAF80000CA
:101BD000400206D42868800715D5E068012809D19D
:101BE00011E0E068B8B10120C9F80000FEF74AFD35
:101BF000064605E022E1FEF745FD801B0228C2D81B
:101C000028688007F7D52868216920F0F80040EAA5
:101C1000C10028600DE0C9F800B0FEF733FD0646AC
:101C200004E0FEF72FFD801B02281FD828688007DC
:101C3000F7D42078000722D5824F84486169703735
:101C400071B101210160FEF71DFD064604E0FEF7BB
:101C500019FD801B022809D838688007F7D50EE0E7
:101C6000C0F800B0FEF70EFD064605E082E0FEF784
:101C700009FD801B02287DD838688007F7D42078BA
:101C8000400765D56F484FF000083C300068C00041
:101C90000BD46C483C30016841F080510160006811
:101CA0004FF0010800F080500090694F3868C0057F
:101CB0000FD4386840F480703860FEF7E3FC0646C5
:101CC00004E0FEF7DFFC801B022853D83868C0050B
:101CD000F7D55C4FA0686C3701280FD0052838680D
:101CE00010D020F001003860386820F0040038601F
:101CF000A068B0B1FEF7C6FC06460EE0386840F0BA
:101D00000100F4E740F004003860F7E7FEF7BAFCA2
:101D1000811B41F28830814263D838688007F5D54D
:101D20000DE0FEF7AFFC064606E0FEF7ABFC811BBC
:101D300041F28830814254D838688007F5D4B8F130
:101D4000000F05D03F483C30016821F08051016010
:101D5000A069B8B33B49091D0968C1F38101022993
:101D600046D00228584606D0C9F86000FEF78AFC23
:101D7000044639E035E04F46C9F86000FEF782FCC2
:101D8000064604E0FEF77EFC801B022829D828685E
:101D90008001F7D4D4E907010843A16A2D4A490814
:101DA00002EB0141626A41EA8211084394F82C1067
:101DB00040EA0161CAF8001001203866FEF762FCB3
:101DC000044605E03CE0FEF75DFC001B022808D855
:101DD00028688001F7D533E0FEF754FC001B022889
:101DE00002D90320BDE8F88F28688001F4D427E0E9
:101DF0000128F7D0DAF80000E26900F4800191428E
:101E00001CD1226A00F03F01914217D147F6C07100
:101E1000626A0140B1EB821F10D1A26A4FF0FF331A
:101E200000F4403103EB5202B1EB024F06D194F8BB
:101E30002C1000F07060B0EB016F01D00120D1E7F1
:101E40000020CFE70438024000004742800E47429E
:101E5000007000400000FFFF7047704710B504009D
:101E600003D094F83D0010B107E0012010BD002020
:101E700084F83C00204600F01EF8022084F83D0063
:101E8000211D206800F004FC012084F8460084F83D
:101E90003E0084F83F0084F8400084F8410084F854
:101EA000420084F8430084F8440084F8450084F834
:101EB0003D00002010BD704790F83D10012901D071
:101EC00001207047022180F83D100168CA6842F085
:101ED0000102CA6000680E4988420ED0B0F1804FFE
:101EE0000BD00C49884208D00B49884205D00B49D9
:101EF000884202D00A49884204D1816801F0070172
:101F0000062903D0016841F00101016000207047FB
:101F1000000001400004004000080040000C0040A8
:101F20000040014070472DE9F04104460068C66852
:101F300005694FF00007A90713D5B10711D5F91EA0
:101F4000016101202077206880698007204602D047
:101F5000FFF7E8FF04E000F07EF8204600F07CF890
:101F60002777680716D5700714D521686FF004002D
:101F70000861022020772068806910F4407F2046A5
:101F800002D0FFF7CFFF04E000F065F8204600F034
:101F900063F82777280715D5300713D521686FF028
:101FA00008000861042020772068C0698007204667
:101FB00002D0FFF7B7FF04E000F04DF8204600F034
:101FC0004BF82777E80616D5F00614D521686FF090
:101FD00010000861082020772068C06910F4407F55
:101FE000204602D0FFF79EFF04E000F034F82046C0
:101FF00000F032F82777E80708D0F00706D021680C
:102000006FF001000861204600F028F8280608D586
:10201000300606D521686FF0800008612046FFF782
:102020001BFF680608D5700606D521686FF04000D2
:102030000861204600F01CF8A8060AD5B00608D5AD
:1020400021686FF0200008612046BDE8F041FFF7ED
:1020500004BFBDE8F0817047704700000068034985
:10206000884201D1FEF798BD704700000000014092
:10207000704770B5040004D094F84100002510B1F9
:1020800006E0012070BD84F84050204600F024F89E
:10209000242084F841002068C16821F40051C16007
:1020A000204600F06DFB2068016921F49041016138
:1020B0002068416921F02A0141612068C16841F42A
:1020C0000051C1606564202084F8410084F842001A
:1020D0006563002070BD000010B586B00446142171
:1020E0006846FEF71FF913492068884220D112483C
:1020F0000021026842F400320260006800F40030FF
:1021000005900D481038026842F001020260006834
:1021100000F0010005900C2000900220CDE90101A3
:10212000032003900720049069460448FEF7D8F97D
:1021300006B010BD0044004040380240000002409C
:102140002DE9F843044690F841001F4615460E4617
:10215000202802D00220BDE8F8838EB185B100208E
:102160006064212084F84100FEF78CFAA584814642
:10217000E584A0684FF02008B0F5805F02D003E04E
:102180000120E8E7206910B1354600260EE0002561
:102190000CE08021204600F079FBA0B9BDB115F814
:1021A000010B21684860E08C401EE084E08C4B46C7
:1021B0004FF0000200970028EBD14FF0400120467D
:1021C00000F064FB40B184F841800320C3E736F897
:1021D000020BC0F30800E4E784F841800020BAE76E
:1021E000FEE7000070B5154C0168154A4FF040231A
:1021F000A14201D1114600E01946CD68C16A8E1C8A
:10220000C6620D80418E491E4186418E002914D13F
:102210000168A14201D1114600E01946496821F048
:10222000600100D01A465160418D002905D14FF060
:10223000010180F84110FEF725FB70BD0038004019
:102240000034004070B5416A144C8A1C42620D880B
:10225000026813494FF04023A24201D10A4600E030
:102260001A46D560428D521E4285428D002A14D1F5
:102270000268A24201D10A4600E01A46526822F0E2
:10228000A00200D019464A60418E002905D14FF0C6
:10229000010180F84110FEF7F5FA70BD00380040EA
:1022A000003400407CB5016804468868009094F8CA
:1022B00041000125042834D10098C00718D048688F
:1022C000C043400614D4C9682046E26A1180E16A1E
:1022D000891CE162618E491E6186618E41B9016887
:1022E0004A6822F060024A6080F84150FEF722FC02
:1022F0000098400615D520684168C943890610D466
:10230000416821F0600141602068C16880680190E7
:1023100084F84150606C40F0020060642046FEF793
:10232000B2FA94F84100032834D10098800719D5F7
:1023300021684868C043000614D4626A20461288A7
:10234000CA60616A891C6162618D491E6185618D07
:1023500041B901684A6822F0A0024A6080F8415001
:10236000FEF718FC0098000714D520684168C9439F
:1023700089060FD4416821F0A0014160206880687F
:10238000009084F84150606C40F004006064204686
:10239000FEF779FA7CBDF0B500230A2430253726F4
:1023A0001F4610E0B4EB107F02D905EB107C01E072
:1023B00006EB107C01F813C001EB430C00015B1C21
:1023C0008CF80170DBB29342ECD3F0BD10B5002263
:1023D0000F49104800F04CFD08B1FEF76DF80E49AA
:1023E0000C4800F05FFF08B1FEF766F80B4909489A
:1023F00000F00CFB08B1FEF75FF8064800F0D6FFCE
:10240000002803D0BDE81040FEF756B810BD00000C
:1024100008000020D4100020F00000205800002008
:10242000FEE7FEE70148FEF7BDBD00008431002055
:102430002DE9F041066805460C46306C06EB441168
:10244000D1F8083B95F806C04FF400474FF0200E36
:1024500005F29C42BCF1010F08D0DFF898C060453E
:1024600038D1180431D5C1F8087B3FE0224E5FEA2D
:10247000037C04D5B04239D91804F4D436E05FEABD
:10248000836C02D5C1F808EB30E013F0280F2DD192
:10249000B04201D91804E6D404EBC40005EB800077
:1024A000D1F8101BD0F87432C1F31201591AC0F8D8
:1024B000681200F51570ACB903691BB1C26811440C
:1024C000C1600FE0012128680AE098060AD5C1F82A
:1024D00008EB07E034B9D5F8640218B9002130469A
:1024E00001F0E2FAE1B22846FEF74EFC0020BDE81A
:1024F000F08100000A31544F0A30544F2DE9F84F53
:102500000E4601EBC60100EB81048146D0F8008045
:10251000D4E909101434884202D90120BDE8F88FAB
:10252000081AA168814200D20846C01C870808EB3F
:10253000461A15E0451AA068A84200D20546E81CD4
:10254000870899F806000090ABB2F2B24046E16805
:1025500001F0E8FDE0682844E060606928446061BB
:10256000DAF8180980B2B84205D3D4E904018142EF
:1025700001D20028DED1D4E90401884208D806F04F
:102580000F0101208840D8F834188143C8F8341866
:102590000020C3E70148FEF777B90000A80100203A
:1025A0000178407841EA00207047FFF70FFF0120D3
:1025B00001F08AFEFBE7000010B5502080F311887F
:1025C000BFF34F8FBFF36F8F02F09EFD18B1044928
:1025D0004FF080500860002080F3118810BD00008B
:1025E00004ED00E030B593B030216846FDF79AFE67
:1025F00014210CA8FDF796FE1C480025016841F047
:1026000080510160006800F0805011901848016806
:1026100041F4404101600068022400F44040119000
:1026200001200090000401908001CDE906400620C1
:1026300008904820CDE9090403200B906846FFF775
:102640005FFA08B172B6FEE70CA90F2081E83100ED
:102650004FF48050CDE90F0502210CA8FFF73EF999
:10266000002801D072B6FEE713B030BD40380240FA
:10267000007000400248016841F470010160704739
:1026800088ED00E00148FFF74EBC00008C100020F0
:10269000F0B502681F4C204D204E214F4FF0804C6A
:1026A000A04207D0604505D0A84203D0B04201D077
:1026B000B84203D122F070034A681A43A04210D0F6
:1026C00060450ED0A8420CD0B0420AD0B84208D023
:1026D000144B984205D0144B984202D0134B9842A9
:1026E00003D122F44073CA681A434B6922F0800276
:1026F0001A438B68C3620B688362A04201D10969E7
:102700000163016841F0040101600121416102603F
:10271000F0BD00000000014000040040000800403F
:10272000000C0040004001400044014000480140CE
:1027300001680C3151E8002F22F4907241E8002327
:10274000002BF5D10168143151E8002F22F001026D
:1027500041E80023002BF5D1016B012909D1016863
:102760000C3151E8002F22F0100241E80023002B29
:10277000F5D1202180F8421000210163704700004C
:1027800070B5044600680169E26821F440511143C4
:102790000161A1682069E269014360691043014356
:1027A0002068C26849F20C639A430A43C2602068F9
:1027B0004169A26921F440711143416131492068A6
:1027C000884202D03049884202D1FFF757F901E030
:1027D000FFF744F9E2690023192164253226B2F596
:1027E000004F626828D0A0FB0101930F9200FDF713
:1027F0004FFD0146B0FBF5F06FF01802504301EBBE
:10280000800006EB0010B0FBF5F000F0F002B1FB29
:10281000F5F002EB0012B1FBF5F06FF0180358432E
:1028200001EB800006EB0010B0FBF5F000F00F00AC
:1028300021681044886070BDA0FB010192185B41C3
:10284000FDF726FD0146B0FBF5F00201B1FBF5F006
:102850006FF01803584301EB800006EBC000B0FB9B
:10286000F5F000F0F80002EB4002B1FBF5F0584340
:1028700001EB800006EBC000B0FBF5F000F00700B4
:10288000D6E7000000100140001401402DE9F84394
:102890001F4690460D460446089E23E0701C21D03A
:1028A000FDF7F0FEC01BB0421AD8CEB12068C16857
:1028B000490717D5802D15D0402D13D00168C94385
:1028C00009070FD401680025406800902046FFF7F3
:1028D0002FFF0820606484F840500120BDE8F88391
:1028E0000320FBE72068006835EA000004D00020E0
:1028F0004045D3D00020F1E70120F9E710B50246AA
:10290000D0F8BC02812906D1D2F8C41201228B680A
:102910000021001D9847002010BD0020704770B5B1
:102920000446812100F0C0FA002584F83750D4F81D
:10293000BC0250B1D4F8C40204F52F7441680020E1
:102940008847206800F0B6FE2560002070BD10B5F5
:10295000D0F8BC4204F5805494F88A1B01290FD1A9
:1029600094F8CC1B02290BD1D0F8C40294F88B1B2D
:10297000026908469047002084F88A0B84F8CB0B44
:10298000002010BD002070476D2101800048704775
:10299000280100200A21018000487047980100208A
:1029A00070B5054600230122812100F0A4FB012619
:1029B00085F8376041F6D03000F07EFEC5F8BC02E5
:1029C000B0B10446066000F58050032180F8841BF6
:1029D0000021A0F8881BA0F8861B80F8856BD5F82D
:1029E000C4020122182103684BF68030984708B1D1
:1029F000032070BD0023221D8121284600F031FCF8
:102A0000002070BD002070470020704709B1C0F859
:102A1000C41200207047002070470000F0B5064641
:102A20004CA00C460FC887B08DE80F006846FDF734
:102A300084FC82B24FF0FF3369464A48FFF780FBBF
:102A40000023ADF814302078D6F8BC121D4610F0E3
:102A500060004BD0202875D16078822837D004DC04
:102A600001281ED081286DD104E0832832D084282B
:102A700068D136E0049362883046120A2146012A62
:102A800004D0022A05D000F08FF860E08DF81030F5
:102A900002E032228DF81020E28804A900F0ABF8A1
:102AA00055E0E28830460F4682B341F68B31394417
:102AB00000F085F807F58057012087F88A0BA07988
:102AC00087F8CB0BA088000A87F8CC0B3FE0ADF865
:102AD000103002E04FF4C84005E0022204A930465D
:102AE000DCE74FF48070ADF81000F6E7607830B1A5
:102AF00006280CD00A2815D00B2823D118E096F808
:102B00009C0203281ED1022205A9E8E718E060888C
:102B10002121B1EB102F1AD1E2881349092ADED9FD
:102B20000922DCE796F89C0203280BD10122D6E7A4
:102B300096F89C02032805D1A078012802D80860E5
:102B400005E0FFE72146304600F02EF8032507B0E8
:102B50002846F0BD48656C6C6F2C205541525432AC
:102B6000210D0A00F00100203A01002010B5D0F834
:102B7000B82200245268904700B10324204610BDBB
:102B80000020704700207047134610B50A46002108
:102B900000F0BDFA002010BD134610B50A46002112
:102BA00000F05FFB002010BD10B50446802100F04E
:102BB00039FB2046BDE81040002100F033BB10B5C2
:102BC0000323C0F89432C0F85421C0F858211346AA
:102BD000C0F864110A46002100F099FA002010BDE7
:102BE00010B50521C0F8941200231A46194600F0CA
:102BF0008EFA002010BD10B50223C0F89432426155
:102C00008261134641620A46002100F02AFB00203F
:102C100010BD10B50421C0F8941200231A461946BD
:102C200000F01FFB002010BD10B50A46024903A0AA
:102C300000F0EBF8004810BDB013002041554449A6
:102C40004F20436F6E666967000000001220088005
:102C5000004870472800002010B50A46024903A02A
:102C600000F0D3F8004810BDB0130020415544498E
:102C70004F20496E746572666163650004200880A8
:102C8000004870472400002010B50A46024903A0FE
:102C900000F0BBF8004810BDB013002053544D693C
:102CA00063726F656C656374726F6E696373000045
:102CB00010B50A46024903A000F0A7F8004810BD6D
:102CC000B013002053544D333220417564696F2096
:102CD000436C61737300000010B51A2008800A4825
:102CE0000168001D0468001D0068081809D008224A
:102CF0000649FFF750FB0549042210312046FFF733
:102D00004AFB0248801E10BD107AFF1F3E000020C3
:102D1000F8B504460020ADF8000048880D46010AC9
:102D200008295FD2DFE801F05E0409175E5E3D45C9
:102D3000D4F8B412207C0A6819E0207C022600280E
:102D4000D4F8B80205D0C16A684688470146467083
:102D500039E0816AF8E7C0B2062843D2DFE800F024
:102D6000030B1115191DD4F8B402426806E0694638
:102D70009047014627E0D4F8B40282688AB3207CE9
:102D8000F5E7D4F8B402C268F8E7D4F8B4020269EF
:102D9000F4E7D4F8B4024269F0E7D4F8B4028269E7
:102DA000ECE7207CE8B9D4F8B802416B6846884764
:102DB000DFE7207CA8B9D4F8B802016B68468847E1
:102DC000014607204870EA888AB1BDF8000040B18A
:102DD000824200D90246ADF800202046FFF70BFFE3
:102DE000F8BDFFE729462046FFF7DEFEF8E720465C
:102DF000FFF70FFFF4E7002102E0491CC9B2401CB5
:102E00000278002AF9D10846704770B516460D467B
:102E1000002820D00446FFF7EEFF022101EB40011D
:102E20004FF40070814204D82046FFF7E4FF4000D1
:102E3000801C3080307828700320687002200022C7
:102E400006E02954401CC0B22A54401CC0B2641C85
:102E500021780029F5D170BD01004FF0000004D0A9
:102E6000012901D0022901D00320704701207047B9
:102E700078B10023C0F8B832C0F8C432C0F8D032FC
:102E800009B1C0F8B412012180F89C12027000F060
:102E9000CBB80320704710B5D0F8C802FDF7B6FFD5
:102EA000BDE81040FFF7D8BF10B5D0F8C802FDF755
:102EB00088FFBDE81040FFF7CFBF70B5044600257E
:102EC00021B194F89C02032846D050E0D4F8941223
:102ED00004F11400022939D1818942688A420AD951
:102EE000511A41608289016911440161426820469A
:102EF000FFF752FE0FE0914214D10068884211D3CF
:102F0000D4F8981288420DD2002211462046FFF7CD
:102F100043FEC4F8985200231A461946204600F092
:102F2000F6F813E094F89C02032808D1D4F8B8020C
:102F3000C16821B1C4F8D452C168204688478021B5
:102F4000204600F06FF92046FFF74AFE94F8A002F1
:102F500068B184F8A0520AE0D4F8B802426932B1EC
:102F6000C4F8D452426920469047002800D100207E
:102F700070BD10B50446002221B194F89C020328CC
:102F800034D03EE0D4F8941204F5AA70032938D165
:102F90008389416899420ED9C91A416001699AB280
:102FA00011440161426898B2824200D8024620462C
:102FB000FFF7EAFD25E094F8AA0210F01F0003D005
:102FC000012802D0022800D0002294F89C02032895
:102FD00008D1D4F8B802016921B1C4F8D42201693A
:102FE000204688472046FFF714FE0AE0D4F8B802CE
:102FF000836933B1C4F8D4228269204690470028FF
:1030000000D1002010BD0020704710B50024012120
:1030100080F89C12D0F8B82222B15268017990470A
:1030200000B10324204610BD10B5017839BB154905
:103030000222C1F8E004C0F8C8124FF0A0400860B6
:1030400004200871CA71002088714A728872C8729F
:1030500008738873C8730846FEF752FA08B1FDF783
:103060002BFA80210748FDF75CFE4022002105482D
:10307000FDF75BFE802201210248FDF756FE00208D
:1030800010BD0000843100200A0601F07F01D0F855
:10309000C80201EBC10100EB810001D5807D7047C2
:1030A00090F85602704710B5D0F8D42200EB820297
:1030B000D2F8B82222B190F89C32032B02D004E05F
:1030C000032010BD126A02B19047002010BD10B558
:1030D000D0F8D42200EB8202D2F8B82222B190F8C4
:1030E0009C32032B02D004E0032010BD526A02B1CF
:1030F0009047002010BD10B51C461346D0F8C802FA
:103100002246FDF7B0FEBDE81040FFF7A5BE10B5A2
:10311000D0F8C802FDF7D8FEBDE81040FFF79CBE0E
:103120002DE9F04100250126044680F89C62C4F890
:1031300094526560C4F8A45280F8A052D0F8B80246
:1031400030B1426822B100212046904700B10325EA
:103150000022402311462046FFF7CDFF402784F888
:103160006361A4F860713B46002280212046FFF78E
:10317000C2FF84F8236027842846BDE8F08190F8D8
:103180009C12042903D190F89D1280F89C12002013
:10319000704710B590F89C12032905D1D0F8B812E9
:1031A00011B1C96901B18847002010BD0174002028
:1031B000704710B5D0F8C802FEF765FABDE81040B8
:1031C000FFF74ABE70B5044600F2AA20054600F09B
:1031D00051F80120C4F89402B4F8B002C4F898027F
:1031E00094F8AA2212F01F000AD001280ED002285B
:1031F00012D02046BDE8704002F0800100F012B805
:1032000029462046BDE8704000F0D2B82946204645
:10321000BDE8704000F015BA29462046BDE8704070
:1032200000F05CB910B5D0F8C802FDF769FEBDE842
:103230001040FFF711BE10B5D0F8C802FEF73DFAF6
:10324000BDE81040FFF708BE90F89C12042903D097
:1032500090F89C1280F89D12042180F89C120020A6
:10326000704710B5D0F8C802FDF783FEBDE81040E6
:10327000FFF7F2BD70B5044611F8010B207011F88C
:10328000010B60700D460846FFF78AF9A91C6080A3
:103290000D460846FFF784F9A080A81CFFF780F9C7
:1032A000E08070BD38B504460020ADF80000A1B143
:1032B000C4F8B812D4F8D40204EB8000D0F8B802F5
:1032C000C16A19B168468847C4F8D002D4F8D80258
:1032D000401CC4F8D802002038BD032038BD034686
:1032E0000020D3F8B822002A02D0126818461047EE
:1032F000704700002DE9F04188462B4E8978002563
:1033000004463170012906D941462046FFF74CFC9E
:103310000320BDE8F08194F89C02022702280CD01B
:1033200003281DD041462046FFF73EFC3178204659
:10333000FFF71CFC03252846EBE789B320466160B4
:10334000FFF7CDFF050004D041462046FFF72CFCD7
:103350001DE02046FFF75DFC032084F89C02EAE7AD
:10336000C1B1606888421BD0C1B22046FFF7FEFBA6
:10337000317820466160FFF7B2FF050010D041466A
:103380002046FFF711FC21792046FFF7EFFB84F878
:103390009C72D0E784F89C7220466160FFF7E6FBE0
:1033A0002046FFF736FCC6E7EC000020FFF743BFDE
:1033B0002DE9F0410A78002612F060020CD0202A94
:1033C00001D0402A7DD1D0F8D42200EB8202D2F87D
:1033D000B8229268904731E04A78002301250A2AF2
:1033E0006FD2DFE802F041666E586E08056E2D2937
:1033F000FFF78EFC67E004468888D8B9C888C8B94A
:103400004888802816D200F07F0794F89C02032891
:1034100010D084F89E7239462046FFF7CAFE204637
:10342000FFF7F7FB1FB1022084F89C024BE084F801
:103430009C5248E0204644E0FFF75CFF064642E02D
:10344000CA88012A3DD190F89C22012A04D0022A80
:1034500002D0032A35D104E0012200F10801836083
:1034600016E00122011D13E090F89C22012A03D0EE
:10347000022A01D0032A24D1CA88022A21D1C56098
:10348000D0F8A41209B10321C160022200F10C019D
:10349000FFF7B1FB17E04A88012A02D0022A03D0C5
:1034A0000FE0C0F8A45216E08988090A80F8A0123B
:1034B00011E090F89C22012A08D0022A06D0032AA3
:1034C00004D0FFF771FB3046BDE8F081498801293F
:1034D000F9D1C0F8A432FFF79CFBF4E72DE9F041E5
:1034E000054608780C790E464FF0000810F0600091
:1034F0000BD0202801D040286BD121462846FFF769
:103500003FFBFF2800D0D8B398E07078C8B30128FB
:1035100024D003285DD195F89C02022802D003280C
:1035200057D10CE0002C54D0802C52D02146284694
:10353000FFF778FE80212846FFF774FE7EE0708852
:1035400040B93CB1802C05D0C88818B9214628461E
:10355000FFF768FE2846FFF75CFB6FE095F89C02DA
:103560000228DFD0032866D1708888BB600603D0AC
:1035700021462846FFF78FFC2846FFF74AFBBCE7A9
:1035800000E00AE0C5F8D402D5F8B8028268FAB1C2
:10359000314628469047804650E095F89C02002727
:1035A000022802D0032846D114E00CB1802C42D16D
:1035B000200604F07F0000EB800005EB800101D5C0
:1035C000143101E001F5AA71022201F80E7F2EE00C
:1035D00034E030E0200604F00F0000EB800005EB43
:1035E00080000AD590F8230028B304F07F0000EB98
:1035F000800005EB800614360AE090F86301D0B134
:1036000004F07F0000EB800005EB800606F5AA764B
:103610004CB1802C07D021462846FFF735FD10B16C
:103620000120B07300E0B773022206F10E012846B4
:10363000FFF7E1FA02E02846FFF7B6FA4046BDE898
:10364000F08170B50546087800240E4610F0600041
:1036500003D0202801D0402827D195F89C020128CA
:1036600003D0022801D003281FD1B088C1B201299C
:103670001AD8C1B22846FFF785FAFF280CD058B9EE
:10368000D5F8B8128A683AB1C5F8D4028A683146CA
:1036900028469047044600E00324F088204307D1E1
:1036A0002846FFF7B6FA03E031462846FFF77CFAD2
:1036B000204670BD7047000000487047B0150020DC
:1036C00070B50A78012302F00F054E78AB401B4C11
:1036D000D0F81C58012E17D045EA0343C0F81C3817
:1036E00000EB4210D0F8002B12040BD4D0F8002BC2
:1036F0000B890979C3F30A031A4344EA81410A4357
:10370000C0F8002B002070BD9BB21D43C0F81C58B0
:1037100000EB4210D0F800391B04F3D4D0F8003984
:103720000D890979C5F30A0589042B4341EA8251C1
:103730000B432343C0F80039E4E700000080001089
:10374000D0F800196FF30A01C0F80019D0F8041876
:1037500041F48071C0F804180020704770B50D4620
:103760000446C2F3072004991E4601281BD0E068D6
:1037700040F04000E060204600F032F8C6F3072138
:103780000029A16B26D021F48031A163C5F3074144
:10379000012907D1A16841F00601A160A16841F0AB
:1037A0002001A16070BDA06B20F48030A063E068B0
:1037B0000A4A1040E060E06820F44010E060C8B2BF
:1037C000012803D1E06840F48010E060204600F05A
:1037D00007F8DBE741F48031D7E70000BFFFBDFF0A
:1037E00008B500214FF0706200910099491C0091CA
:1037F000914210D801690029F7DA0A210091491E87
:103800000091FCD1016941F0010101610099491C5D
:103810000091914201D9032008BD0169C907F5D182
:10382000002008BD70B54C780A78012300EB4212E5
:10383000012C2DD0D2F8004B002C0BDAD2F8004B23
:1038400044F00064C2F8004BD2F8004B44F08044CE
:10385000C2F8004BD0F83C480D781E4605F00F0525
:10386000AB4024EA0343C0F83C38D0F81C48097840
:1038700001F00F0106FA01F324EA0341C0F81C1815
:10388000D2F8000B19490840C2F8000B002070BDA7
:10389000D2F80049002C0BDAD2F8004944F0006459
:1038A000C2F80049D2F8004944F08044C2F8004907
:1038B000D0F83C480D7805F00F061D46B3409BB28A
:1038C0009C43C0F83C48D0F81C48097801F00F012F
:1038D00005FA01F399B28C43C0F81C48D2F80009EC
:1038E00003490840C2F80009D0E700000078F3EF70
:1038F000007833ECD0F8001E21F00301C0F8001E60
:10390000D0F8041821F00201C0F804180020704714
:10391000D0F8001E21F00301C0F8001ED0F80418F2
:1039200041F00201C0F80418002070472DE9F04F63
:10393000002604460F4692463046354604EB800189
:10394000C1F80451401C0F28F8D3C3F307405FEAC5
:10395000000B204613D0806B20F40011A163A06BF4
:1039600040F40021A163C4F8005ECAF307200128D7
:1039700017D0D4F80018204641F0030118E0D0F821
:10398000040840F00201C4F80418A06B40F40011D0
:10399000A163A06B20F40021A163A06B20F480211F
:1039A000E0E7380ED4F80018204601D041F00101BC
:1039B000C0F80018102100F087FA00B10126204657
:1039C00000F066FA00B10126C4F81058C4F8145883
:1039D000C4F81C5800204FF0006C4FF090434FF695
:1039E0007F39FAB214E004EB4011D1F80089B8F144
:1039F000000F06DA10B1C1F8003904E0C4F800C9BC
:103A000001E0C1F80059C1F81059C1F80899401CEB
:103A10008242E8D8002014E004EB4011D1F8008B7A
:103A2000B8F1000F06DA10B1C1F8003B04E0C4F8A9
:103A300000CB01E0C1F8005BC1F8105BC1F8089B46
:103A4000401C8242E8D8D4F8100820F48071C4F8F1
:103A50001018A5616FF080406061C7F3074018B986
:103A6000A06940F01000A061A0690A490843A06164
:103A7000CAF3074018B1A06940F00800A061BBF18B
:103A8000010F03D1A06904490843A0613046BDE895
:103A9000F08F000000383C8004000040816821F075
:103AA000010181600020704710B5036C134CA342E4
:103AB00003D9D0F8003B002B1EDB0023C0F8103BDD
:103AC000D0F8103B43F40023C0F8103BD0F8103B73
:103AD00043F01803C0F8103BD0F8103B43F0C0434C
:103AE000C0F8103B012907D1C0F8142BD0F8001BF7
:103AF00041F08021C0F8001B002010BD0A30544F57
:103B00004A780B78012A00EB43100BD0D0F8002B39
:103B100022F40012C0F8002B0979032914D00229DD
:103B200012D017E0D0F8002922F40012C0F80029C2
:103B30000979032901D002290CD1D0F8001941F0EC
:103B40008051C0F8001905E0D0F8001B41F0805109
:103B5000C0F8001B002070470A784B78D1B200EB08
:103B60004110012B12D0D0F8001B002906DB2AB12E
:103B7000D0F8001B21F08041C0F8001BD0F8001BDA
:103B800041F40011C0F8001B00207047D0F8001964
:103B9000002906DB2AB1D0F8001921F08041C0F8D5
:103BA0000019D0F8001941F40011C0F80019EBE732
:103BB000F8B50C784F788B4DE3B26FF0604600EBB0
:103BC0004313012F29D0D3F8107B6FF31207C3F8EA
:103BD000107BD3F8107B2F40C3F8107B002C7DD0D6
:103BE0000D69002D7BD08C6825446D1EB5FBF4F566
:103BF000ADB26C430C62D3F8104B06EAC5452C43BA
:103C0000C3F8104BD3F8104B0D6AC5F312052C43C3
:103C1000C3F8104B012A70D0CBE00F69EFB1D3F895
:103C200010796FF31207C3F81079D3F810792F4089
:103C3000C3F810790CB30F698D682F447F1EB7FB52
:103C4000F5F5D3F81079ADB206EAC5463743C3F8A7
:103C500010790E79012E1CD02AE0D3F810692E407D
:103C6000C3F81069D3F8105945F40025C3F810596A
:103C7000D3F810596FF3120520E00E698D68AE423B
:103C800000D90D61D0F8105945F40026C0F810692C
:103C90000EE0D3F8106926F0C046C3F81069D3F8D7
:103CA00010694FF0C04707EA45752E43C3F8106905
:103CB000D3F810590E69C6F312063543C3F81059EC
:103CC000012A1BD000EB4413D3F8004944F004440C
:103CD000C3F800490C79012C31D001E044E057E0F1
:103CE0000A695AB3D0F83428097801F00F0301218A
:103CF00099400A43C0F8342871E056E0CA691AB105
:103D000000EB4413C3F81429097901290ED1D0F826
:103D10000818C90500EB4411D1F8002902D442F07B
:103D2000005201E042F08052C1F8002900EB44103B
:103D3000D0F8001941F00441C0F800194FE0D0F864
:103D40000848E405D3F8004902D444F0005401E0E7
:103D500044F08054C3F8004900920A8A93B20A786A
:103D6000C96800F0DFF93AE00C690CB18C680C61AD
:103D70008C680C62D0F8105BC4F312042543C0F8C1
:103D8000105BD0F8104B44F40024C0F8104B41E70E
:103D9000D3F8104B8D68C5F312052C43C3F8104BB4
:103DA000D3F8104B44F4002432E7CA680AB1C3F8D0
:103DB000142B097901290CD1D0F80808C005D3F8D3
:103DC000000B02D440F0005001E040F08050C3F8F6
:103DD000000BD3F8000B40F00440C3F8000B0020A8
:103DE000F8BD0000FFFF07E038B5002200920B7815
:103DF0004D7800EB431442F21073012D19D0D4F822
:103E0000005B002D3CDAD4F8005B45F00065C4F897
:103E1000005B0C7800EB4414D4F8005B45F080455F
:103E2000C4F8005B009C641C00949C4221D90122D0
:103E300026E0D4F80059002D22DAD4F8005945F0D4
:103E40000065C4F800590C7800EB4414D4F800590C
:103E500045F08045C4F80059009C641C00949C42C5
:103E6000E5D80C7800EB4414D4F80049002CF3DBBF
:103E700006E00C7800EB4414D4F8004B002CD1DBA6
:103E8000104638BD816841F0010181600020704713
:103E900008B500234FF0706200930099491C00910F
:103EA00091420AD801690029F7DA102100930161D3
:103EB0000099491C0091914201D9032008BD016974
:103EC000C906F5D4002008BD18B500244FF0706372
:103ED0000094009A521C00929A420CD80269002A5F
:103EE000F7DA202242EA8111009401610099491C0D
:103EF0000091994201D9032018BD01698906F5D4C2
:103F0000002018BDD0F8080810F0060004D00228E0
:103F100003D0062801D00F20704702207047406967
:103F200000F001007047D0F81818D0F81C080840BD
:103F300080B27047D0F81818D0F81C080840000C60
:103F4000704710B5D0F81038D0F8342801F00F04BD
:103F500000EB4110E24002F00102D0F8080943EA08
:103F6000C212104010BD00EB4111D1F8081BD0F86F
:103F7000140808407047416980690840704730B5AF
:103F800003460846940802F00301002203F580531B
:103F900003E01D6840F8045B521CA242F9D30029DB
:103FA0000BD01C680022D50024FA05F3491E521CD0
:103FB000090400F8013B090CF5D130BD70B5054688
:103FC000C068002420F0C040E860012901D079B128
:103FD00020E0E86840F00050E8600A20FCF76EFA44
:103FE00068690A3410F0010F10D1C82CF5D30DE028
:103FF000E86840F08040E8600A20FCF75FFA6869F2
:104000000A3410F0010F01D0C82CF5D3C82C01D010
:10401000002070BD012070BDD0F8002822F4FE629F
:10402000C0F80028D0F800284FF4FE6303EA01111D
:104030000A43C0F80028002070470000022A3ED141
:10404000264A274B0A449A4201D20F2138E0254ADA
:10405000254B0A449A4201D20E2131E0234A244BD7
:104060000A449A4201D20D212AE0224A224B0A44F4
:104070009A4201D20C2123E0204A214B0A449A4261
:1040800001D20B211CE01F4A1F4B0A449A4201D265
:104090000A2115E01D4A1E4B0A449A420FD31D4ABD
:1040A0001D4B0A449A4201D2082109E01B4A1144DF
:1040B0001B4A914201D2072102E0062100E00921BA
:1040C000C26822F47052C260C2684FF4705303EAAF
:1040D00081210A43C260002070470000405327FF3F
:1040E00000350C00401E1BFF40420F0000DC0BFFA0
:1040F000804F1200808CF9FE20D6130060B6E5FEDA
:1041000060E3160000D3CEFE40771B00C05BB3FE19
:10411000C091210000CA91FE20753800E05459FE7C
:10412000E09C410010B5029C6CB9DB1C9C0800EBC4
:104130000230002300F5805003E051F8042B0260A8
:104140005B1CA342F9D3002010BDFEE7014A0249DF
:1041500000F023B8BD410008A40100200907090EA2
:10416000002804DB00F1E02080F80014704700F024
:104170000F0000F1E02080F8141D704702E008C82D
:10418000121F08C1002AFAD170477047002001E0D1
:1041900001C1121F002AFBD170472DE9F0411646DC
:1041A0000F460446002503E03946B047641C6D1CE9
:1041B00020780028F8D12846BDE8F08138B50446BB
:1041C0008DF8000069460320ABBE204638BD0000D4
:1041D00088B0FCF7E9FCFEF705FA2C4800240168DA
:1041E00041F080010160016801F0800107910168E0
:1041F00041F001010160016801F0010107910168CE
:1042000041F0020101600068214900F002000790BE
:10421000204801604FF4E131C0E901140C21C46071
:10422000C0E904418461C461FDF723FF08B172B69F
:10423000FEE718481849483801604FF44071416062
:10424000102181600321C1604FF4007101614BF6C0
:104250008031C0E90514C4610462FCF717FB08B1A2
:1042600072B6FEE7FCF7F8F81C220C496846FCF72A
:1042700040F80021684600F033F80949086009A0B9
:10428000FFF764FF00F027F8FEE700003038024037
:1042900000440040F001002000380040A453000812
:1042A00000000020416C6C20496E697420537563D6
:1042B0006365737346756C6C210D0A00014600201E
:1042C000842900D0C81C704710B500B9012000F047
:1042D000E5FB002010BD10B500F02CFC002010BD47
:1042E0007FB50D4604464169B0F9080081B1A16966
:1042F00071B1FFF7E3FFD4E905128DE80700D4E9B7
:1043000000102B46226900F0C4FE039004B070BD7B
:10431000FFF7D4FF03A9CDE90001208A2B4682B222
:10432000D4E9001000F088FE012801D00020EDE75C
:104330000398EBE72DE9F041184E0F460446F56867
:104340003068001D00F0B8FA38B9306890F82C10C9
:1043500001208840316981433161601C07D137B148
:104360003168BDE8F0410E48091D00F0E9BA306837
:104370002C44AC424460316805D2B06BBDE8F041DA
:10438000091D00F0C5BA706B091D00F0C1FAB06AD2
:10439000844200D2B462BDE8F081000084000020B5
:1043A000443700202DE9F041054600F0D5FA2E4EA5
:1043B000B068401CB06030682C4F10B1706940B3D9
:1043C0002DE03560B068012829D1002404EB840079
:1043D00007EB800000F08EFA641C072CF6D323480C
:1043E0008C3000F087FA2148A03000F083FA1F4893
:1043F000B43000F07FFA1D48C83000F07BFA1B484B
:10440000DC3000F077FA19488C3070631430B063F8
:1044100005E03068E96AC06A884200D83560706A91
:104420000121401C7062E86A3269814011433161A8
:1044300000EB800007EB8000291D00F081FA00F0FE
:10444000ABFA706900280CD03068E96AC06A88420B
:1044500007D207494FF080500860BFF34F8FBFF37A
:104460006F8FBDE8F08100008400002068360020D6
:1044700004ED00E030B4026C0B46002A0BD0C1689A
:104480001144C1608468A14201D30168C16030BC9D
:104490001846FBF72EBF30BC70472DE9F041856B05
:1044A000174604460026026C82B1C7B1E068FBF7EC
:1044B00020FFE168206C091AE1602268914202D273
:1044C000A168081AE060022F16D017E02068A8B98A
:1044D000A06800F07FFE06460020A0600EE0606845
:1044E000FBF707FF216C606808446060A1688842A0
:1044F00004D32068606001E005B16D1E6D1CA563EA
:104500003046BDE8F08110B5044690F8510058B12E
:1045100001280CD002280FD0502080F31188BFF35F
:104520004F8FBFF36F8FFEE7206B00F049FA2046F4
:10453000BDE8104000F044BA10BD000010484FF430
:104540007041420706D0C01D0D4920F00700411AF6
:10455000C1F570410B4A00230144C2E90003083948
:10456000183A21F0070111604B600B600B1AC0E98B
:10457000001393604FF0004053605061704700009B
:1045800058370020D8000020134E144DA6F1C8075C
:104590004FF08058DFF8489011E000F0DDF9F06846
:1045A000C468201D00F088F9A868401EA8606868EB
:1045B000401E686000F0F0F92046FFF7A4FF68682D
:1045C0000028EAD138680128F9D9C9F80080BFF37A
:1045D0004F8FBFF36F8FF2E7303700208400002049
:1045E00004ED00E00346009829B10260C0E90F31F4
:1045F000012100F0A7BB0060F8E72DE9F0479A46DB
:10460000DDE9098481466FF00303206B03EB82022E
:104610001044089D20F00706700707D0502080F353
:104620001188BFF34F8FBFF36F8FFEE7002761B193
:10463000002023180A5C83F834200A5C12B1401C65
:104640001028F6D384F8437001E084F83470072D05
:1046500000D30625E562C4E91157201D00F055F985
:1046600004F1180000F051F92461C5F107006462FB
:10467000A061E76484F8507052464946304600F025
:1046800005F92060B8F1000F01D0C8F80040BDE87E
:10469000F087000030B5114900E011460A688242F7
:1046A000FBD34B685C18844203D1406818444860CF
:1046B000084643681C18944209D1084C183C2468E9
:1046C000A24209D052681A4442600A681268026025
:1046D000814200D0086030BD0460F9E7D8000020B6
:1046E00010B5044600F038F9A06B20B1002400F0AA
:1046F00053F9204610BD0124F9E700000648416B3C
:10470000096829B1416BC968C96849688162704705
:104710004FF0FF31FAE700008400002008484068AD
:10472000401C4FF0500080F3118804D0BFF34F8F2E
:10473000BFF36F8FFEE7BFF34F8FBFF36F8FFEE7BF
:10474000E00000202DE9F041044600F005F994F95D
:10475000455004F1240609E0606A48B1304600F093
:1047600085FD08B100F0C8F96D1E6DB2002DF3DCB7
:104770004FF0FF3684F8456000F00EF900F0ECF8D9
:1047800094F9445004F1100709E0206948B1384613
:1047900000F06CFD08B100F0AFF96D1E6DB2002D98
:1047A000F3DC84F84460BDE8F04100F0F5B80000A7
:1047B0002DE9F0410546002600F0F2F9324F386845
:1047C00008B9FFF7BBFE786905424ED1C5B308357D
:1047D00068070ED005F00700C0F10800054468071F
:1047E00007D0502080F31188BFF34F8FBFF36F8F36
:1047F000FEE72DB37868854237D82349183108463B
:10480000046801E0214604466068A84202D220689C
:104810000028F7D13868844227D00E6820680860E5
:1048200060680836411B10290FD96019420708D06B
:10483000502080F31188BFF34F8FBFF36F8FFEE7D7
:1048400013E041606560FFF725FF61687868401AF2
:104850007860BA68904200D2B8607869014300205D
:10486000C4E90001F868401CF86000F039FD7007E9
:1048700007D0502080F31188BFF34F8FBFF36F8FA5
:10488000FEE73046BDE8F081C000002010B5031FF0
:104890004FF080741C601B1F21F001011960191F6B
:1048A000044B0B6014390A60091F6FF00202443890
:1048B0000A6010BD1D470008D0E9013201699A6005
:1048C000D0E901235A604A68824201D182684A6075
:1048D000002202610868401E0860086870470000F6
:1048E000034B036003F154000860802010607047A0
:1048F000380E002000F108014FF0FF32C0E901122C
:10490000C1600161002101607047002101617047B1
:1049100030B50C68621C02D000F1080202E00269A6
:1049200004E01A4653681D68A542FAD953684B60E3
:1049300099608A60516008610168491C016030BD5E
:1049400042684A6093688B6093685960916008611F
:104950000168491C01607047502080F31188BFF343
:104960004F8FBFF36F8F0A494868401C4860012889
:104970000CD10848006810F0FF0F07D0502080F3DA
:104980001188BFF34F8FBFF36F8FFEE770470000B2
:10499000E000002004ED00E00849486828B1401E0E
:1049A000486001D180F311887047502080F311884E
:1049B000BFF34F8FBFF36F8FFEE70000E0000020D2
:1049C00070B500282AD0164DA0F108046068696906
:1049D000084207D1502080F31188BFF34F8FBFF3F7
:1049E0006F8FFEE722683AB1502080F31188BFF341
:1049F0004F8FBFF36F8FFEE78843606000F0D0F801
:104A000060686968084468602046FFF743FE2869CB
:104A1000401C2861BDE8704000F062BC70BD000021
:104A2000C00000204FF0E0200021016181610549B4
:104A30004FF47A720968B1FBF2F1491E4161072116
:104A4000016170478000002010B5FBF70BFC114995
:104A500010280ED300F1E02090F8F0030A7890427D
:104A600007D2502080F31188BFF34F8FBFF36F8FB1
:104A7000FEE709480068896800F4E060884207D9C9
:104A8000502080F31188BFF34F8FBFF36F8FFEE785
:104A900010BD0000E00000200CED00E010B50200A9
:104AA00014D00F48006B38B1502080F31188BFF349
:104AB0004F8FBFF36F8FFEE700F072F800211046B2
:104AC000FFF738FC00F00CFC002807D105494FF037
:104AD00080500860BFF34F8FBFF36F8F10BD000091
:104AE0008400002004ED00E002490A6A0260C968FF
:104AF000416070478400002001490120C86170476F
:104B00008400002010B50C4650B1094909681831DD
:104B1000FFF7FEFE2046BDE810400121FFF70ABC6A
:104B2000502080F31188BFF34F8FBFF36F8FFEE7E4
:104B30008400002010B586B00024039405AA04A9BF
:104B400003A80494FFF7CCFEDDE903010094CDE94E
:104B5000011000230EA11048059A00F09AFA0F499F
:104B60000028C86211D0502080F31188BFF34F8F06
:104B7000BFF36F8F4FF0FF30886201204861CC6037
:104B800006B0BDE8104000F041B806B010BD00000E
:104B900049444C450000000089450008840000207D
:104BA0000248016B491C016370470000840000202B
:104BB000144A106B10B10120D06170470020D06101
:104BC00010691149B0FA80F0C0F11F0000EB8000BD
:104BD00051F820306BB101EB800000F1080341680F
:104BE00049684160994201D149684160C8681060D4
:104BF0007047502080F31188BFF34F8FBFF36F8F42
:104C0000FEE7000084000020683600201CB537480D
:104C10000168374A914207D1502080F31188BFF3D1
:104C20004F8FBFF36F8FFEE700683149491E8842FE
:104C300007D1502080F31188BFF34F8FBFF36F8FE0
:104C4000FEE72C4908780190FF20087008788DF85D
:104C500000009DF800009DF8002000F0F000904258
:104C600007D0502080F31188BFF34F8FBFF36F8FB1
:104C7000FEE79DF80000204C00F050002070072057
:104C8000A06006E0401EA0609DF8000040008DF886
:104C900000009DF800000006A068F3D4032807D0A8
:104CA000502080F31188BFF34F8FBFF36F8FFEE763
:104CB0004FF44070A060019808700C4820300168E3
:104CC00041F470010160016841F070410160FFF73B
:104CD000A9FE00206060FBF78DFA0848016841F0EA
:104CE00040410160FBF772FA00201CBD00ED00E0BE
:104CF00071C20F4100E400E0E000002034EF00E06A
:104D0000F8B517460E46050013D005FB06F04830EF
:104D1000FFF74EFD04000AD0002084F8460004F19D
:104D200048023B46314628460094FFF75BFC20468C
:104D3000F8BD502080F31188BFF34F8FBFF36F8F02
:104D4000FEE7000070B50D46040025D0FFF704FE15
:104D5000D4E90F20216802FB0011A1600021A163AA
:104D6000216861600A46D4E90F01401E00FB012161
:104D7000E16021464FF0FF3001F8440F487004F124
:104D800010008DB1FFF7B6FD04F12400FFF7B2FD6E
:104D9000FFF702FE012070BD502080F31188BFF3A1
:104DA0004F8FBFF36F8FFEE721690029F0D000F02D
:104DB0005DFA0028ECD004494FF080500860BFF342
:104DC0004F8FBFF36F8FE3E704ED00E02DE9F0476D
:104DD0001F4690468946040003D0B9F1000F08D061
:104DE00011E0502080F31188BFF34F8FBFF36F8F16
:104DF000FEE7206C38B1502080F31188BFF34F8F4D
:104E0000BFF36F8FFEE7022F0AD1E06B012807D0B6
:104E1000502080F31188BFF34F8FBFF36F8FFEE7F1
:104E2000FFF712FE5020EFF3118680F31188BFF3D5
:104E30004F8FBFF36F8FA06BE16B884206D3022FB9
:104E400004D0002086F31188BDE8F08794F945501E
:104E5000A06B3A4649462046FFF71FFB681C04D06A
:104E60006D1C84F845500120ECE7606A0028FAD0F8
:104E700004F1240000F0FAF90028F4D0B8F1000F92
:104E8000F1D00121C8F80010EDE700002DE9F74747
:104E900083B08A4604004FF0000603D0BAF1000F39
:104EA00008D011E0502080F31188BFF34F8FBFF37B
:104EB0006F8FFEE7206C38B1502080F31188BFF36C
:104EC0004F8FBFF36F8FFEE700F010F9DFF8F0901F
:104ED00000274FF0805848B9059838B1502080F32A
:104EE0001188BFF34F8FBFF36F8FFEE7FFF734FDDD
:104EF000A56BC5B151462046FFF7BCFA6D1EA563F0
:104F0000206950B104F1100000F0B0F928B1C9F8DF
:104F10000080BFF34F8FBFF36F8FFFF73DFD012080
:104F200006B0BDE8F087059808B11EB106E0FFF7AE
:104F300033FD27E06846FFF7D7FD0126FFF72CFD7C
:104F4000FFF72EFEFFF708FD94F94400401C01D145
:104F500084F8447094F94500401C01D184F84570F0
:104F6000FFF71AFD05A9684600F02CF80028204636
:104F70000AD0FFF7E7FB00F0B3F92046FFF7B0FBDC
:104F80000028B3D00020CBE7FFF7AAFB90B104F1D3
:104F900024000599FFF7B6FD2046FFF7D3FB00F08C
:104FA0009FF90028A2D1C9F80080BFF34F8FBFF34B
:104FB0006F8F9BE72046FFF7C5FB00F091F995E75F
:104FC00004ED00E02DE9F0410C46050011D0C4B11C
:104FD000FFF7C2FC174EF1686B682268C81A571CAD
:104FE00017D02F68366AB74219D08B4217D80124E0
:104FF00010E0502080F31188BFF34F8FBFF36F8F05
:10500000FEE7502080F31188BFF34F8FBFF36F8FFF
:10501000FEE70024FFF7C0FC2046BDE8F081824295
:1050200005D9101A20602846FFF75EFDF1E7002041
:105030002060DCE7840000202DE9FF5F8346DDE986
:105040000E87994616468A469000FFF7B1FB050089
:105050001CD05420FFF7ACFB040014D000202563C3
:1050600084F85100CDE90240CDE900874B46324635
:1050700051465846FFF7C1FA2046FFF793F9012041
:1050800004B0BDE8F09F2846FFF79AFC4FF0FF30D0
:10509000F6E7F0B585B00546DDE90B040A9EA8B138
:1050A000E4B1542700972063022084F851000020C7
:1050B000CDE9024004AF2846CDE90067FFF79DFA2D
:1050C0002046FFF76FF9049805B0F0BD502080F33B
:1050D0001188BFF34F8FBFF36F8FFEE7502080F32F
:1050E0001188BFF34F8FBFF36F8FFEE7054841690B
:1050F00019B1006B18B100207047012070470220E1
:1051000070470000840000202DE9F0412F4F002659
:10511000386B28B1B869401CB8613046BDE8F081F1
:10512000FD686D1CFD6013D1786B006838B15020AC
:1051300080F31188BFF34F8FBFF36F8FFEE7786B5B
:10514000B96B7963B863386A401C3862FFF7D6FAE6
:10515000B86ADFF87C80854209D3786B0068A0B11B
:10516000786BC068C4686068854211D2B8623868DC
:10517000C06A00EB800158F82100012800D90126FF
:10518000F8690028C9D00126C7E74FF0FF30EDE7E6
:10519000201DFFF791FBA06A18B104F11800FFF77A
:1051A0008BFBE06A01213A6981401143396100EBD0
:1051B000800108EB8100211DFFF7C2FBE06A39681E
:1051C000C96A8842C9D30126C7E7000084000020CD
:1051D0006836002070B504004FF0000041D0214D2A
:1051E00029688C4207D0502080F31188BFF34F8F7D
:1051F000BFF36F8FFEE7A16C71B1491EA164636CB0
:10520000E26A9A422DD000292BD1201DFFF754FBD2
:105210001549012240B112E0502080F31188BFF3FC
:105220004F8FBFF36F8FFEE7E06A00EB800351F80A
:10523000233023B92B6902FA00F083432B61606CA1
:10524000E062C0F10700A061E06A2B6982401A4366
:105250002A6100EB800001EB8000211DFFF770FB4D
:10526000012070BD84000020683600202DE9F04147
:10527000C068C468ACB104F118000746FFF71CFB16
:10528000154D286B0126A0B139461448FFF758FB8D
:10529000E06A2968C96A88421CD90120EE61BDE82C
:1052A000F081502080F31188BFF34F8FBFF36F8FD1
:1052B000FEE7201DFFF700FBE06A2A6906FA00F10D
:1052C00011432961054900EB8000B43901EB8000EE
:1052D000211DDBE70020E2E7840000201C370020CE
:1052E0002DE9F0472C4D00242746286B38B1FFF7F5
:1052F00033FB286B401E2863286B40B146E05020EA
:1053000080F31188BFF34F8FBFF36F8FFEE7A8685C
:1053100022490126D0B3A1F1B4098846D8F800107B
:10532000E9B1D8F80C00C46804F11800FFF7C4FA1A
:10533000201DFFF7C1FAE06A2A6906FA00F111435D
:10534000296100EB800109EB8100211DFFF7F8FACC
:10535000E06A2968C96A8842E0D3EE61DEE70CB1F1
:10536000FFF7CCF9AC693CB1FFF7CEFE00B1EE61BE
:10537000641EF9D10020A861E86938B10849012705
:1053800038070860BFF34F8FBFF36F8FFFF704FB41
:105390003846BDE8F0870000840000201C3700205C
:1053A00004ED00E0D8530008AB2500080000000021
:1053B000000000008000000000000000000000006D
:1053C00000000000000000000102030406070809B5
:1053D000000000000102030464656661756C74548A
:1053E00061736B000454000800000020A801000055
:1053F000AC030008DC540008A8010020B02901001B
:105400008C41000881134D2C1B087D041A89041A55
:10541000B1041AD9041A29041A59041704030904F7
:105420001201320216408304405726020102030192
:10543000031A1A03130F041B0807041A03041A1B88
:10544000041A13041A17041A0B04193B11821003CF
:105450006124F41AAA018113A1291B081F04131D3A
:105460002A1B0885081A4F041BFD28A419081A17BF
:10547000141A05041A09041A891069041A95041CDF
:1054800009026DF71135803209041A01C314092489
:10549000011B01270B170C240201010229D6191543
:1054A0001A060D2A03091B03032612021B090419FD
:1054B000191F2909190119092C0724011B3A0B3757
:1054C00015100180BB2E0905810190413B0725463F
:0C54D000311B0A063C216A40100000005D
:040000050800019955
:00000001FF
